:100000000C9472010C94A3010C94A3010C94A30111
:100010000C94A3010C94A3010C94A3010C94A301D0
:100020000C94A3010C94A3010C94A3010C94A301C0
:100030000C94A3010C94A3010C94A3010C94A301B0
:100040000C94A3010C94A50E0C94A3010C94A30191
:100050000C94A3010C94A3010C94A3010C945210D2
:100060000C94A3010C9421100C94F70F0C94A30191
:100070000C94A3010C94A3010C94A3010C94A30170
:100080000C94770E0C94A3010C94A3010C94A3017F
:100090000C94A3010C94A3010C94A3010C94D30E13
:1000A0000C94A3010C94A3010C94490E0C94A3018D
:1000B0000C94A3010C94A3010C94A3010C941B0EAB
:1000C0000C94A3010C94A3010C94A3010C94A30120
:1000D0000C94A3010C94A3010C94A3010C94A30110
:1000E0000C94A301084AD73B3BCE016E84BCBFFDF4
:1000F000C12F3D6C74319ABD56833DDA3D00C77FF8
:1001000011BED9E4BB4C3E916BAAAABE0000008090
:100110003F000C9498020C9434070C947E120C94BB
:10012000CF060C9485070C947A170C9487050C94D1
:100130005B070C944A070C9455070C94CA050C9461
:1001400069070C9458060C9486050C942F070C94A0
:100150008C020C9452070C9465070C94A5060C9421
:1001600046070C94F9050C9477070C944E070C94F1
:100170009D050C9496050C945F070C9408060C944E
:100180002A060C9484020C94F8060C9481070C94B3
:100190001C060C946D070C947B070C9473074E415E
:1001A0004E494E495459494E46CDCCCC3D0AD723F1
:1001B0003C17B7D13877CC2B329595E6241FB14F39
:1001C0000A000020410000C84200401C4620BCBE7E
:1001D0004CCA1B0E5AAEC59D7400000A0B02090CD6
:1001E0000D0E0807030401000000000000000000DD
:1001F00000000000000000000000000000000000FF
:1002000000000000001211100000000000000000BB
:1002100000000000000000000000000000000000DE
:10022000002200250028002B002E0031003400029F
:10023000010000050108010B010000210024002736
:10024000002A002D003000330001010000040107E6
:10025000010A01050505050705080808080202024C
:10026000020A0A0808040404040101010101010151
:10027000010303030303030303040707070C0C0C28
:100280000C0C0C0C0C020202020606060606060600
:10029000060B0B0B0B0B0B0B0B010210202008089D
:1002A00010204010204080020102010804020101D8
:1002B00002040810204080804020100804020180C1
:1002C0000402018040201008040201080402010118
:1002D0000204081020408001020408102040800021
:1002E0007E127A1711241FBECFEFD1E2DEBFCDBF41
:1002F00000E00CBF12E0A0E0B2E0E2ECFDE300E0C1
:100300000BBF02C007900D92AC34B107D9F725E0BE
:10031000ACE4B2E001C01D92A732B207E1F711E0F0
:10032000C1E7D1E000E006C021970109802FFE015E
:100330000E94A11EC037D10780E00807A9F70E94DC
:1003400084120C9482170C940000E0911505F09132
:1003500016050190F081E02D682F85E195E0199454
:100360008F929F92AF92BF92CF92DF92EF92FF92C5
:10037000CF93DF93EC018AAD811131C0EE8DFF8DFB
:10038000C080D180E280F380CEA2DFA2E8A6F9A6E9
:10039000EC8DFD8D80819181A281B3818AA79BA77D
:1003A000ACA7BDA78EA89FA8A8ACB9ACA501940125
:1003B000C701B6010E94AD1D18162CF48EA29FA293
:1003C000A8A6B9A60CC08AA89BA8ACA8BDA8A501E0
:1003D0009401C701B6010E94F21887FDEFCF81E0BA
:1003E0008AAFDF91CF91FF90EF90DF90CF90BF90D9
:1003F000AF909F908F90089590E0FC01E756FD4FDD
:1004000024918D5A9D4FFC018491882399F090E0AE
:10041000880F991FFC01E75CFD4FA591B491FC0189
:10042000E15EFD4F859194918FB7F894EC91E22BAA
:10043000EC938FBF0895613208F049C09091F404A5
:100440009111FCCF92E09093F4044093F3049FEF5A
:100450009093F2041092F1046093F00425EF34E0DD
:10046000A0EDB4E0F9019E2F921B961758F110925F
:10047000CF049091CF04880F892B8093CF04809173
:10048000CE04813011F51092CE048091CF04809378
:10049000BB008091BC0083FDF8CF85EC8093BC004D
:1004A0008091F4048230E1F38091F2048F3F89F06F
:1004B0008091F204803279F08091F204803369F007
:1004C00084E0089591919D93CECF85EEE7CF81E0B2
:1004D000089580E0089582E0089583E00895482F0C
:1004E0006091CD048091CC040E941B021092CB0439
:1004F0001092CD041092CA04089584E892E090937B
:10050000C9048093C804089508958CE892E09093FC
:10051000C7048093C60408950895E0912304F091E0
:1005200024040190F081E02D682F83E294E0199477
:1005300090912204809121042FEF3FEF981748F407
:10054000E92FF0E0EF5FFB4F208130E09F5F909359
:100550002204C901089590912204809121042FEF73
:100560003FEF981748F4E92FF0E0EF5FFB4F208151
:1005700030E09F5F90932204C9010895613208F032
:1005800044C09091F4049111FCCF91E09093F40455
:100590004093F3042FEF2093F2041092F104260FFE
:1005A0002093F0049093CF049091CF04880F892B6F
:1005B0008093CF048091CE04813011F51092CE0447
:1005C0008091CF048093BB008091BC0083FDF8CF65
:1005D00085EC8093BC008091F4048130E1F380913C
:1005E000F104861710F46091F10420ED34E0A1E0ED
:1005F000B4E0F9018E2F821B861720F0862F089514
:1006000085EEE7CF81918D93F5CF60E0F7CFDC01E8
:10061000EC91E03390F511968C91119728E830E039
:10062000281B310987FD3395220F331F220F331FFB
:100630006217730784F012968C9128E532E0281B2C
:10064000310987FD3395220F331F220F331F6217A5
:1006500073070CF49B0122503109220F331F4FB74F
:10066000F8948E2F90E0FC01EE0FFF1FE80FF91FAA
:10067000EF58FC4F328321834FBF08951F93CF93D0
:10068000DF93EC01162F8881803308F069C0862F34
:100690000E94FC014881842F90E0FC01EE0FFF1FB7
:1006A000E80FF91FEF58FC4F1F736081607C612BCE
:1006B000608319821A822CE0622F0E94811E829F21
:1006C000B001112430E020E0DB01A20FB31FFD01D7
:1006D000EE0FFF1FEA0FFB1FEF58FC4F908196FDB6
:1006E00032C02F5F3F4F2C30310571F78130F1F46C
:1006F0001092800082E08093810010928500109219
:100700008400B19A80916F00826080936F004C30BA
:10071000D0F41092200182E08093210110922501F3
:10072000109224018ABB809373000DC08230E9F4DB
:100730001092900080939100109295001092940076
:1007400088BB80937100E8818E2F90E0FC01EE0F52
:10075000FF1FE80FF91FEF58FC4F808180648083F2
:100760008881DF91CF911F910895833081F6109297
:10077000A00082E08093A1001092A5001092A40036
:1007800089BB80937200DFCF2F923F924F925F928E
:100790006F927F928F929F92AF92BF92CF92DF9291
:1007A000EF92FF920F931F93CF93DF93EC016A01B7
:1007B0007B0148015901A9019801CB01B6010E94B2
:1007C000AD1D87FF4FC0CAAADBAAECAAFDAA8EAA5C
:1007D0009FAAA8AEB9AE8AAD882309F443C02E8C77
:1007E0003F8CF1014080518062807380A3019201AF
:1007F000C501B8010E94F21887FF1AC0F10180827A
:100800009182A282B3828EA09FA0A8A4B9A4CEA8F0
:10081000DFA8E8ACF9ACA7019601C501B4010E94BC
:10082000AD1D18169CF4CEA2DFA2E8A6F9A61AC048
:10083000A3019201C701B6010E94AD1D18161CF755
:10084000F101C082D182E282F382DDCFCAA8DBA8A7
:10085000ECA8FDA8A7019601C501B4010E94F218F9
:1008600087FDE1CFDF91CF911F910F91FF90EF9026
:10087000DF90CF90BF90AF909F908F907F906F90C0
:100880005F904F903F902F9008958F929F92AF92DC
:10089000BF92CF92DF92EF92FF92CF93DF93EC0162
:1008A00016161706A4F56B01770FEE08FF08C701AF
:1008B000B6010E94F9184B015C016EA57FA588A9BD
:1008C00099A90E94F7189B01AC01C501B4010E94CF
:1008D000DE1C4B015C01AC019B01688979898A8926
:1008E0009B890E945819688B798B8A8B9B8BA501F9
:1008F00094016C897D898E899F890E94DE1C6C8B96
:100900007D8B8E8B9F8BCEA6DFA6E8AAF9AADF91FE
:10091000CF91FF90EF90DF90CF90BF90AF909F90DE
:100920008F9008954F925F926F927F928F929F92D5
:10093000AF92BF92CF92DF92EF92FF920F931F93ED
:10094000CF93DF9300D000D0CDB7DEB79E838D83E9
:100950002A013B014801590120E030E0A901CB0107
:10096000B2010E94F21887FD89C020E030E0A901A1
:10097000C501B8010E94F21887FD80C020E030E078
:10098000A901C701B6010E94F21887FD77C081E076
:10099000ED81FE81228D338D2130310509F080E01B
:1009A000ED81FE8183AF40825182628273828482B4
:1009B0009582A682B782C086D186E286F38666A536
:1009C00077A580A991A90E94F71820E030E04AE7B6
:1009D00054E40E94DE1C69837A838B839C83ED81BF
:1009E000FE8144865586668677869B01AC01C501EB
:1009F000B4010E9458194B015C01ED81FE81808A8F
:100A0000918AA28AB38A29813A814B815C81C7018C
:100A1000B6010E94DE1C6B017C01ED81FE81C48A5F
:100A2000D58AE68AF78A808D918D019739F5A301E1
:100A3000920160E070E0CB010E94421CED81FE81DA
:100A40006487758786879787A501940160E070E0C9
:100A5000CB010E94421CED81FE81608B718B828BE9
:100A6000938BA701960160E070E0CB010E94421CCD
:100A7000ED81FE81648B758B868B978B26960FB6E6
:100A8000F894DEBF0FBECDBFDF91CF911F910F91C4
:100A9000FF90EF90DF90CF90BF90AF909F908F909E
:100AA0007F906F905F904F90089585ED8093BC008C
:100AB0008091BC0084FDFCCF1092F4040895209135
:100AC0004903260F3327331F21323105ECF42091DF
:100AD000F404FC0190E080E0243069F082E00895A5
:100AE000A09149032191AC01475D5C4FA40FB52F44
:100AF000B11D2C930196861798F380914903680FD6
:100B00006093490380E0089581E008950895E0919D
:100B1000220480912104E81730F4F0E0EF5FFB4FEE
:100B2000808190E008958FEF9FEF089580912104D8
:100B300090912204891B990B0895CF92DF92EF9236
:100B4000FF920F931F93CF93DF937C01CB018A0118
:100B50002091CA04222389F0EB016B01C40ED51E3B
:100B6000CC15DD0569F06991D701ED91FC910190FB
:100B7000F081E02DC7011995F3CF642F0E945F0526
:100B8000C801DF91CF911F910F91FF90EF90DF90FF
:100B9000CF900895CF93DF930F92CDB7DEB76983DF
:100BA0002091CA042223F9F02091CD04203258F07C
:100BB00021E030E0FC013383228390E080E00F905D
:100BC000DF91CF9108958091CB04E82FF0E0EB50B6
:100BD000FB4F998190838F5F8093CB048093CD04EA
:100BE00081E090E0ECCF61E0CE0101960E945F05CC
:100BF000F7CFFC01538D448D252F30E0842F90E0FA
:100C0000821B930B541710F0CF9608950197089507
:100C1000FC01918D828D981761F0A28DAE0FBF2FD0
:100C2000B11D5D968C91928D9F5F9F73928F90E026
:100C300008958FEF9FEF0895FC01918D828D981795
:100C400031F0828DE80FF11D858D90E008958FEFD2
:100C50009FEF0895FC01918D228D892F90E0805C9B
:100C60009F4F821B91098F7399270895FC01A48DD2
:100C7000A80FB92FB11DA35ABF4F2C91848D90E0BE
:100C800001968F739927848FA689B7892C93A089A1
:100C9000B1898C91837080648C93938D848D98132B
:100CA00006C00288F389E02D80818F7D80830895BE
:100CB000EF92FF920F931F93CF93DF93EC01F62EE9
:100CC00081E0888F9B8D8C8D98131AC0E889F989F3
:100CD000808185FF15C09FB7F894EE89FF896083F6
:100CE000E889F98980818370806480839FBF81E077
:100CF00090E0DF91CF911F910F91FF90EF900895B9
:100D00000B8D10E00F5F1F4F0F731127E02E8C8D9E
:100D10008E110CC00FB607FCFACFE889F9898081E3
:100D200085FFF5CFCE010E943606F1CFEB8DEC0F9B
:100D3000FD2FF11DE35AFF4FF0829FB7F8940B8F00
:100D4000EA89FB8980818062D0CFCF93DF93EC0169
:100D5000888D8823B9F0AA89BB89E889F9898C91A3
:100D600085FD03C0808186FD0DC00FB607FCF7CF5F
:100D70008C9185FFF2CF808185FFEDCFCE010E945F
:100D80003606E9CFDF91CF91089583E294E00E9487
:100D90002A0621E0892B09F420E0822F0895CF92C2
:100DA000DF92EF92FF920F931F93CF93DF937C011B
:100DB0006A0110E000E00C151D0581F0EB01D70180
:100DC000ED91FC910190F081E02D6991C701199599
:100DD000892B21F00F5F1F4FBE01EDCFC801DF91BE
:100DE000CF911F910F91FF90EF90DF90CF900895DA
:100DF00090E080E0089590917B00977F90937B0036
:100E00008653806480937C0080917A008064809314
:100E10007A0080917A0086FDFCCF809178009091D5
:100E200079000895282F30E0F901E752FE4F9491A0
:100E3000F901E756FD4F44912D5A3D4FF901249198
:100E4000222319F1992381F09150923168F4E92F0E
:100E5000F0E08827E153F14E8F4F0C94A11E809152
:100E600080008F7780938000E22FF0E0EE0FFF1F6D
:100E7000E15EFD4FA591B4918FB7F894EC916111AB
:100E800048C040954E234C938FBF089580918000B9
:100E90008F7DE8CF80918000877FE4CF84B58F7706
:100EA00084BDE2CF84B58F7DFBCF8091B0008F777A
:100EB0008093B000D9CF8091B0008F7DF9CF809121
:100EC00090008F7780939000CFCF809190008F7D9E
:100ED000F9CF80919000877FF5CF8091A0008F7728
:100EE0008093A000C1CF8091A0008F7DF9CF809129
:100EF000A000877FF5CF809120018F77809320011C
:100F0000B3CF809120018F7DF9CF80912001877F21
:100F1000F5CF4E2BB8CFAF92BF92CF92DF92EF9228
:100F2000FF920F931F93CF93DF936B017A01EC0134
:100F3000C359DC4F28813CE0389F8001399F100D58
:100F40001124A0906C03B12C27FF1FC0FB0111825C
:100F5000108288818F5F888388819801280F311DD6
:100F600087FD3A95F6012A153B051CF488818C30E3
:100F7000C4F180819181049680349C4908F473C047
:100F8000F60180819181049670C088819801280FB4
:100F9000311D87FD3A952A153B05DCF68881A801AD
:100FA000480F511D87FD5A95FA01EE0FFF1FE40F00
:100FB000F51FEF58FC4F808186FFCBCF8881F80169
:100FC000E80FF11D87FDFA95CF01EE0FFF1FE80F27
:100FD000F91FEF58FC4F808160E08F730E94120769
:100FE000B8CF808191812881A801420F511D27FD32
:100FF0005A959A01FA01EE0FFF1FE20FF31FEF5807
:10100000FC4F21813281820F931FF70191838083EE
:1010100088819801280F311D87FD3A95F901EE0F5F
:10102000FF1FE20FF31FEF58FC4F808186FF22C0A5
:101030008881080F111D87FD1A95F801EE0FFF1F1B
:10104000E00FF11FEF58FC4F808161E08F73DF915B
:10105000CF911F910F91FF90EF90DF90CF90BF90B5
:10106000AF900C94120780E49CE9F7019183808390
:101070008FEF8883DF91CF911F910F91FF90EF90B9
:10108000DF90CF90BF90AF9008951092F40481E06C
:101090008093F3041092CE0461E084E10E94120771
:1010A00061E085E10E941207E9EBF0E080818E7F2C
:1010B000808380818D7F808388E48093B80085E47D
:1010C0008093BC000895789484B5826084BD84B513
:1010D000816084BD85B5826085BD85B5816085BD33
:1010E000EEE6F0E0808181608083E1E8F0E010824C
:1010F000808182608083808181608083E0E8F0E08D
:10110000808181608083E1EBF0E080818460808376
:10111000E0EBF0E0808181608083E1E9F0E08081B4
:1011200082608083808181608083E0E9F0E080815B
:1011300081608083E1EAF0E0808182608083808149
:1011400081608083E0EAF0E0808181608083E1E279
:10115000F1E0808182608083808181608083E0E231
:10116000F1E0808181608083EAE7F0E08081846043
:1011700080838081826080838081816080838081A0
:10118000806880831092C10008953FB7F8948091E1
:10119000510290915202A0915302B091540226B58F
:1011A000A89B05C02F3F19F00196A11DB11D3FBF9F
:1011B000BA2FA92F982F8827BC01CD01620F711D6E
:1011C000811D911D42E0660F771F881F991F4A9568
:1011D000D1F708958F929F92AF92BF92CF92DF92F4
:1011E000EF92FF920E94C5084B015C0184E6C82E75
:1011F000D12CE12CF12C0E94C508681979098A09C3
:101200009B09683E734081059105A8F321E0C21A4D
:10121000D108E108F10888EE880E83E0981EA11C31
:10122000B11CC114D104E104F10429F7FF90EF903F
:10123000DF90CF90BF90AF909F908F9008952FB781
:10124000F89460914D0270914E0280914F029091FE
:1012500050022FBF08952F923F924F925F926F924C
:101260007F928F929F92AF92BF92CF92DF92EF9236
:10127000FF920F931F93CF93DF93CDB7DEB72F97D6
:101280000FB6F894DEBF0FBECDBF9F878E870E943A
:101290001F096D837E838F839887EE85FF8582A1EA
:1012A00093A1A4A1B5A14D815E816F817885481B72
:1012B000590B6A0B7B0B86A597A5A0A9B1A9481766
:1012C00059076A077B0708F426C1048CF58DE02DC9
:1012D00080819181A281B38189839A83AB83BC830E
:1012E000AE85BF859096ED91FC9129813A814B8125
:1012F0005C8160817181828193810E94421C4B01DB
:101300005C01EE85FF8522A533A544A555A569811D
:101310007A818B819C810E94421C6B017C01AE858D
:10132000BF8550962D913D914D915C915397C5018C
:10133000B4010E945819EE85FF8526A137A140A56A
:1013400051A50E94431C2B013C01AE85BF8596969A
:101350004D925D926D927C929997DB96BC91B98784
:10136000B11118C0EE85FF852485358546855785E2
:10137000C701B6010E9458199B01AC01C301B2011B
:101380000E94421CAE85BF8596966D937D938D938A
:101390009C939997EE85FF8546A057A060A471A401
:1013A00016A907A930AC21AC212F302F432D522D87
:1013B000C301B2010E94AD1D18160CF08FC0812F21
:1013C000902FA32DB22DEE85FF8586A397A3A0A70E
:1013D000B1A7F985FF2309F49AC0AE85BF851C9695
:1013E0002D913D914D915C911F97C501B4010E94D3
:1013F00058194B015C01EE85FF85248935894689A2
:101400005789C701B6010E9458199B01AC01AE85EE
:10141000BF8596966D917D918D919C9199970E9433
:10142000421CA50194010E94431C6B017C019B019D
:10143000AC01612F702F832D922D0E94F21887FD31
:1014400014C0EE85FF8512A903A934A825A8212F71
:10145000302F432D522DB601C7010E94F21887FD8F
:1014600004C01C2D0D2D3E2C2F2CAE85BF855E9605
:10147000ED91FC91812F902FA32DB22D808391832C
:10148000A283B38389819A81AB81BC81EE85FF857C
:1014900082A793A7A4A7B5A78D819E81AF81B885A8
:1014A00082A393A3A4A3B5A381E02F960FB6F894CB
:1014B000DEBF0FBECDBFDF91CF911F910F91FF9087
:1014C000EF90DF90CF90BF90AF909F908F907F90E4
:1014D0006F905F904F903F902F900895AE85BF859D
:1014E000D2968D919D910D90BC91A02D8A879B875E
:1014F000AC87BD879C01AD01C301B2010E94F21807
:1015000087FF67CF8A859B85AC85BD855CCF812CA5
:10151000912C540170CF80E0C8CFCF93DF93C7E602
:10152000D2E060915D0270915E02072E000C880B84
:10153000990B0E94F91820E030E043E053E40E9448
:10154000DE1C688379838A839B8360915B02709140
:101550005C02072E000C880B990B0E94F91820E002
:1015600030E043E053E40E94DE1C6C837D838E8375
:101570009F83DF91CF910895009799F0FC0101902E
:101580000020E9F73197AF01481B590BE091230484
:10159000F09124040280F381E02DBC0183E294E009
:1015A000199490E080E008958F929F92AF92BF923D
:1015B000CF92DF92EF92FF920F931F93CF93DF931F
:1015C000CDB7DEB7A1970FB6F894DEBF0FBECDBF83
:1015D0006B017C0119A2423008F44AE08E010F5DD4
:1015E0001F4F842E912CB12CA12CC701B601A5014F
:1015F00094010E94501E6A3014F5605DF8016293F8
:101600008F01C814D904EA04FB04B0F4CF010E948E
:10161000BC0AA1960FB6F894DEBF0FBECDBFDF9116
:10162000CF911F910F91FF90EF90DF90CF90BF90DF
:10163000AF909F908F90089569017A01D6CF695C31
:10164000DDCFCF92DF92EF92FF92CF93DF936C01C9
:10165000990FEE08FF08F7FE17C08DE20E948D0279
:10166000EC0166277727CB016C197D098E099F094C
:101670004AE00E94D40A8C0F9D1FDF91CF91FF900A
:10168000EF90DF90CF9008954AE0C701B601DF9157
:10169000CF91FF90EF90DF90CF900C94D40A4F92AF
:1016A0005F926F927F928F929F92AF92BF92CF92F2
:1016B000DF92EF92FF92CF936B017C01C42FAC01BC
:1016C0009B010E94041E882389F08AE392E0CF9157
:1016D000FF90EF90DF90CF90BF90AF909F908F9052
:1016E0007F906F905F904F900C94BC0A4601570119
:1016F000E894B7F82FEF3FEF4FE75FE7C501B4017C
:101700000E94041E81110DC02FEF3FEF4FE75FE7EE
:10171000C501B4010E94F21818161CF48EE392E081
:10172000D6CF2FEF3FEF4FE75FE4C701B6010E942E
:10173000AD1D18161CF482E492E0C9CF2FEF3FEFE5
:101740004FE75FECC701B6010E94F21887FDF3CFA7
:1017500020E030E0A901C701B6010E94F218B12CC7
:10176000A12C87FF08C08DE20E948D025C01F7FA70
:10177000F094F7F8F094912C60E070E080E09FE343
:10178000C91541F020E030E040E251E40E94DE1C47
:101790009394F6CFA70196010E94431C2B013C01B4
:1017A0000E94571D6B017C010E94F7189B01AC0140
:1017B000C301B2010E94421C2B013C014AE0C70157
:1017C000B6010E94D40A7C01EA0CFB1CCC2329F050
:1017D0008EE20E948D02E80EF91EC15018F120E041
:1017E00030E040E251E4C301B2010E9458192B01DC
:1017F0003C010E94571D4B01B12CA12C4AE0C501B0
:10180000B4010E94D40AE80EF91EC501B4010E9479
:10181000F7189B01AC01C301B2010E94421C2B01CD
:101820003C01DBCFC701CF91FF90EF90DF90CF90CD
:10183000BF90AF909F908F907F906F905F904F90F0
:101840000895FC01808191810C94B21ACF93DF93AB
:101850002091C4043091C504232B89F0C091C004A9
:10186000D091C104682F880F770BCE010E94301CE5
:10187000009729F08C1B9D0BDF91CF9108958FEF7E
:101880009FEFFACFFC0180819181009711F00C94B9
:101890007E1760E070E0CB0108950F931F93CF9304
:1018A000DF93EC018B0188819981009759F02A819F
:1018B0003B812617370730F081E0DF91CF911F91F0
:1018C0000F910895B8016F5F7F4F0E94431B0097EF
:1018D00059F0998388831B830A832C813D81232BB4
:1018E00059F7FC011082E8CF80E0E7CFEF92FF923A
:1018F0000F931F93CF93DF93EC017B018A01BA0111
:101900000E944D0C28813981811114C021153105A7
:1019100019F0C9010E94B21A198218821D821C8214
:101920001B821A82CE01DF91CF911F910F91FF9000
:10193000EF9008951D830C83B701C9010E943B1CE1
:10194000F1CFCF92DF92EF92FF920F931F93CF933D
:10195000DF93EC016B017A014617570720F48D2DB8
:101960006A01E62EF82E198218821B821A821D82C5
:101970001C8250E040E06AE472E0CE010E94760CE6
:101980000091C4041091C504C016D10640F5E016BC
:10199000F10608F48701E091C004F091C104E00F62
:1019A000F11FF08010826091C0047091C1046C0D31
:1019B0007D1D61157105E9F0FB0101900020E9F73B
:1019C0003197AF01461B570BCE010E94760C8091D8
:1019D000C0049091C104080F191FF801F082CE01D4
:1019E000DF91CF911F910F91FF90EF90DF90CF90FB
:1019F000089588819981009711F00E94B21A198286
:101A000018821D821C821B821A82E1CFEF92FF9204
:101A10000F931F93CF93DF930F920F92CDB7DEB743
:101A2000FF24F39483E294E00E942A06892BB9F103
:101A300083E294E00E940806E82E89831A820091CE
:101A4000C4041091C5040F5F1F4FB80180EC94E0EF
:101A50000E944D0C882399F02091C0043091C1045C
:101A60008091C4049091C504BE016F5F7F4F820FC7
:101A7000931F0E943B1C1093C5040093C40480E490
:101A8000E81205C0F092960210929502CBCF8AE23E
:101A9000E812C8CFF0929602F0929502C3CF0F9051
:101AA0000F90DF91CF911F910F91FF90EF900895CC
:101AB0000E94C50681110E94060D80E090E0892BEE
:101AC00049F080E090E0892B29F00E94000081110C
:101AD0000E94000080E090E0892B49F080E090E0D7
:101AE000892B29F00E94000081110E94000080E0F3
:101AF00090E0892B49F080E090E0892B29F00E944A
:101B0000000081110C94000008954F925F926F9233
:101B10007F928F929F92AF92BF92CF92DF92EF927D
:101B2000FF92CF93DF936091570270915802072E76
:101B3000000C880B990B0E94F91820E030E040E877
:101B400058E30E9458194B015C0160915902709151
:101B50005A02072E000C880B990B0E94F91820E0FE
:101B600030E040E858E30E9458196B017C01609115
:101B7000550270915602072E000C880B990B0E949B
:101B8000F91820E030E040E858E30E9458199B0122
:101B9000AC010E9458192B013C01A7019601C70115
:101BA000B6010E945819A30192010E94431C0E9491
:101BB000C01D9B01AC01C501B4010E94DE1C0E9446
:101BC000AF1CCFE5D2E020EE3EE245E652E40E94B3
:101BD0005819688379838A839B83A5019401C50181
:101BE000B4010E945819A30192010E94431C0E9453
:101BF000C01D9B01AC01C701B60190580E94DE1CBC
:101C00000E94AF1C20EE3EE245E652E40E945819C5
:101C10006C837D838E839F83DF91CF91FF90EF90C4
:101C2000DF90CF90BF90AF909F908F907F906F90FC
:101C30005F904F9008951F920F920FB60F9211244C
:101C40000BB60F922F933F934F935F936F937F93B6
:101C50008F939F93AF93BF93EF93FF9348E251E02D
:101C600064E271E090E080E00E948B07FF91EF91C9
:101C7000BF91AF919F918F917F916F915F914F91A4
:101C80003F912F910F900BBE0F900FBE0F901F90A2
:101C900018951F920F920FB60F9211240BB60F9248
:101CA0002F933F934F935F936F937F938F939F9364
:101CB000AF93BF93EF93FF9348EA50E064EA70E07C
:101CC00083E090E00E948B07FF91EF91BF91AF916D
:101CD0009F918F917F916F915F914F913F912F9144
:101CE0000F900BBE0F900FBE0F901F9018951F9274
:101CF0000F920FB60F9211240BB60F922F933F93B2
:101D00004F935F936F937F938F939F93AF93BF9303
:101D1000EF93FF9348E950E064E970E082E090E0DF
:101D20000E948B07FF91EF91BF91AF919F918F918F
:101D30007F916F915F914F913F912F910F900BBECB
:101D40000F900FBE0F901F9018951F920F920FB615
:101D50000F9211240BB60F922F933F934F935F93E3
:101D60006F937F938F939F93AF93BF93EF93FF9363
:101D700048E850E064E870E081E090E00E948B0762
:101D8000FF91EF91BF91AF919F918F917F916F9153
:101D90005F914F913F912F910F900BBE0F900FBE0F
:101DA0000F901F9018951F920F920FB60F9211244B
:101DB0000BB60F922F933F934F935F936F937F9345
:101DC0008F939F93AF93BF93EF93FF938091B9004D
:101DD000887F803609F44DC008F040C0883209F48D
:101DE000A9C028F5803109F49DC0C8F4882309F4FE
:101DF000FBC0883009F496C0FF91EF91BF91AF917D
:101E00009F918F917F916F915F914F913F912F9112
:101E10000F900BBE0F900FBE0F901F90189588313A
:101E200009F488C0803241F78093F20414C08034F2
:101E300009F49DC040F48033B9F38833E9F6809308
:101E4000F20485ECB0C0803509F485C0883509F40A
:101E500096C0883489F60E945505CECF883909F49A
:101E60008CC038F5883729F050F4883611F0803767
:101E700019F683E08093F40410926B0357C08838FE
:101E800009F47BC0803919F0803809F0B5CF809112
:101E90006B03803208F071C0E0916B0381E08E0F1C
:101EA00080936B038091BB00F0E0E55BFC4F808387
:101EB0003DC0803B39F0E0F4803A09F479C0883ABB
:101EC00009F09ACF84E08093F40410924A031092B0
:101ED0004903E091C604F091C70419958091490324
:101EE00081110FC081E0809349031092290309C03A
:101EF000803C09F4A6CF883C09F4A3CF883B09F0C5
:101F00007BCFE0914A0381E08E0F80934A03F0E09B
:101F1000E75DFC4F80818093BB0090914A038091E4
:101F2000490329C08091CF048093BB0085EC809346
:101F3000BC0062CF9091F1048091F004981758F59D
:101F4000E091F10481E08E0F8093F104F0E0E05322
:101F5000FB4F8081E9CFE091F10481E08E0F809307
:101F6000F1048091BB00F0E0E053FB4F808390913F
:101F7000F1048091F0049817C8F285E8D8CFE09179
:101F8000F10481E08E0F8093F1048091BB00F0E0BA
:101F9000E053FB4F80838091F30481115CCF81E09B
:101FA0008093CE0484EA8093BC001092F40424CF82
:101FB00085EC8093BC001092F40480916B03803216
:101FC00030F4E0916B03F0E0E55BFC4F1082609130
:101FD0006B0370E0E091C804F091C9048BE493E0D6
:101FE000199510926B0308CF1092F20434CF1F9210
:101FF0000F920FB60F9211240BB60F922F933F93AF
:102000004F935F936F937F938F939F93AF93BF9300
:10201000EF93FF9383E294E00E943606FF91EF91E5
:10202000BF91AF919F918F917F916F915F914F91F0
:102030003F912F910F900BBE0F900FBE0F901F90EE
:1020400018952F932FB72F932BB72F938F939F9381
:10205000EF93FF93E0913304F09134048081E09199
:102060003904F0913A0482FD1BC0908180913C04B8
:102070008F5F8F7320913D04821741F0E0913C0403
:10208000F0E0ED5DFB4F958F80933C04FF91EF9165
:102090009F918F912F912BBF2F912FBF2F9118952B
:1020A0008081F4CF1F921FB61F9211242F933F936C
:1020B0008F939F93AF93BF9380914D0290914E0267
:1020C000A0914F02B091500230914C0223E0230FB7
:1020D0002D3750F50196A11DB11D20934C02809320
:1020E0004D0290934E02A0934F02B0935002809104
:1020F000510290915202A0915302B0915402019664
:10210000A11DB11D8093510290935202A0935302DE
:10211000B0935402BF91AF919F918F913F912F91B6
:102120001F901FBE1F90189526E8230F0296A11D31
:10213000B11DD3CFE5E1F5E01382128288EE93E082
:10214000A0E0B0E084839583A683B7838CE292E01D
:10215000918380830895E3E2F4E01382128288EE93
:1021600093E0A0E0B0E084839583A683B7838AE1FF
:1021700092E09183808385EC90E09587848784EC5E
:1021800090E09787868780EC90E0918B808B81EC44
:1021900090E0938B828B82EC90E0958B848B86EC25
:1021A00090E0978B868B118E128E138E148E08956D
:1021B000AF92BF92CF92DF92EF92FF920F931F9355
:1021C00080916C03803308F09EC091E0980F90934B
:1021D0006C0380939E0290E0FC01EE0FFF1FE80F5E
:1021E000F91FEF58FC4F88EB9BE09283818380912D
:1021F0006C03803308F08BC091E0980F90936C03D0
:102200008093970290E0FC01EE0FFF1FE80FF91F8B
:10221000EF58FC4F88EB9BE09283818380910C0206
:1022200090910D0220910E0230910F02A090910228
:10223000B0909202C0909302D0909402E090080275
:10224000F090090200910A0210910B021F9241E0E6
:102250004F933F932F939F938F9325E732E041EA6B
:1022600052E06DE772E081EE92E00E948B11809166
:102270000402909105022091060230910702A0907D
:102280008D02B0908E02C0908F02D0909002E090AC
:102290000002F090010200910202109103021F92CD
:1022A0001F923F932F939F938F9321E732E04AE948
:1022B00052E069E772E085EA92E00E948B11109289
:1022C000C1041092C0041092C3041092C204109270
:1022D000C5041092C4048DB79EB70C960FB6F8943F
:1022E0009EBF0FBE8DBF50E040E06AE472E080EC1C
:1022F00094E01F910F91FF90EF90DF90CF90BF90EF
:10230000AF900C94760C8FEF80939E0270CF8FEF7E
:102310008093970283CF4F925F926F927F928F92BA
:102320009F92AF92BF92CF92DF92EF92FF920F9364
:102330001F93CF93DF9300D00F92CDB7DEB74C0140
:10234000270138010C8D1D8DDC015F965C934E9347
:102350005E975D967C936E935C9791963C932E93DB
:102360009097DA961C92FC0112AA13AA14AA15AA35
:1023700080E090E0AFE7B3E486AB97ABA0AFB1AF3E
:1023800084E690E0A0E0B0E086A797A7A0ABB1AB51
:10239000118F008F20E030E0A901C301B7010E9436
:1023A000F21887FD84C020E030E0A901C601B50124
:1023B0000E94F21887FD7BC020E030E0A901688D03
:1023C000798D8A8D9B8D0E94F21887FD70C081E007
:1023D00090E0D4015B969C938E935A97DB968C93F6
:1023E000DB97F40140825182628273821496AD922F
:1023F000BD92CD92DC921797888D998DAA8DBB8D59
:1024000080879187A287B3874486558666867786BC
:102410002DEC3CEC4CEC5DE3C601B5010E94581973
:1024200069837A838B839C83F401608B718B828BAD
:10243000938B2DEC3CEC4CEC5DE3688D798D8A8DB3
:102440009B8D0E94DE1C6B017C01D4015496CD92C1
:10245000DD92ED92FC9257970130110541F5A301F1
:10246000920160E070E0CB010E94421CF40164879D
:1024700075878687978729813A814B815C8160E0E7
:1024800070E0CB010E94421CD40150966D937D9365
:102490008D939C935397A701960160E070E0CB0168
:1024A0000E94421CF401648B758B868B978B0E9473
:1024B0001F09D4019E960D911D912D913C91D197AC
:1024C000601B710B820B930BF40162A373A384A3B3
:1024D00095A30F900F900F900F90DF91CF911F91C8
:1024E0000F91FF90EF90DF90CF90BF90AF909F90B3
:1024F0008F907F906F905F904F9008950E949A10F8
:102500000E94AB100C94D810CDB7DEB7CA54D109D5
:102510000FB6F894DEBF0FBECDBF0E9463088DE0FA
:102520000E94FC0110922204109221041092CB040C
:102530001092CD040E9445080E9485020E947D02EF
:1025400081E08093CA0488E68093CC048BE690E017
:102550000E94A50190E080E00E94A50181E00E9418
:102560006F0263E070E08EE992E00E943E0364E057
:1025700070E087E992E00E943E0368E975E08EE929
:1025800092E00E94070362E276E087E992E00E940F
:102590000703E0913304F091340482E08083E091FA
:1025A0002F04F09130041082E0913104F091320454
:1025B00080E1808310923B04E0913704F09138046D
:1025C00086E08083E0913504F0913604808180615B
:1025D0008083E0913504F0913604808188608083A7
:1025E000E0913504F0913604808180688083E09129
:1025F0003504F091360480818F7D808381EE92E0F6
:102600000E94B00185EA92E00E94B00100E010E073
:1026100020EA31E440E050E060EA71EC81EE92E0C3
:102620000E94C40300E010E020EA31E440E050E002
:1026300060EA71EC85EA92E00E94C40364E670E00F
:1026400081EE92E00E94450464E670E085EA92E043
:102650000E94450464EF71E080EC94E00E944D0C10
:102660000E94EA08C0902503D0902603E09027033B
:10267000F0902803C0922103D0922203E09223031A
:10268000F09224030E941F090E94F718609325030B
:10269000709326038093270390932803A701960144
:1026A0000E94421C20E030E04AE754E40E94DE1C15
:1026B00060931D0370931E0380931F039093200368
:1026C00021E02093CA0438E63093CC041092CB0466
:1026D0001092CD048BE390E00E94A50180E00E945F
:1026E0006F0241E066E088E60E94BE02109222047A
:1026F000809321040E94AB02182F0E94AB02219606
:102700001FAF21971FAE21962EAD3FAD2197822B93
:10271000932B90935A02809359020E94AB02182F78
:102720000E94AB0223961FAF239722961FAE2297DB
:1027300023962EAD3FAD2397822B932B9093580277
:10274000809357020E94AB02182F0E94AB0225967D
:102750001FAF259724961FAE249725962EAD3FAD2B
:102760002597822B932B90935602809355020E94BB
:10277000850D0E94850D31E03093CA0488E6809370
:10278000CC041092CB041092CD0483E490E00E941C
:10279000A50180E00E946F0241E064E088E60E94AB
:1027A000BE0210922204809321040E94AB02182FD3
:1027B0000E94AB0227961FAF279726961FAE26973B
:1027C00027962EAD3FAD2797822B932B90935E02D9
:1027D00080935D020E94AB02182F0E94AB022996E3
:1027E0001FAF299728961FAE289729962EAD3FAD8B
:1027F0002997822B932B90935C0280935B020E941B
:102800008D0A0E948D0A87E30E94FB067C0188E303
:102810000E94FB068C019701FF0C440B550B2451C1
:10282000310941095109A0E9B1E00E943D1E24EDA2
:1028300033E040E050E00E941E1EDA01C901885CCE
:102840009109A109B10964E670E00E948D1ECB01D7
:102850006AE070E00E948D1E209183023091840214
:10286000820F931F893C910514F088EC90E0883327
:102870003FEF930714F488E39FEF909384028093D3
:102880008302012E000C220B330BA9019801245165
:10289000310941095109A0E7BEEF0E944B1E24ED0A
:1028A00033E040E050E00E941E1EDA01C901885367
:1028B0009F4FAF4FBF4F64E670E00E948D1ECB016B
:1028C0006AE070E00E948D1E2091810230918202A8
:1028D000820F931F893C910514F088EC90E08833B7
:1028E0002FEF920714F488E39FEF90938202809376
:1028F0008102C0901D03D0901E03E0901F03F09052
:102900002003209167023091680240916902509142
:102910006A02C701B6010E945819209185023091C0
:10292000860240918702509188020E94431C28E44D
:1029300031EE4AE75FE30E9458194B015C012AE03F
:1029400037ED43EA5CE360915F0270916002809131
:102950006102909162020E9458199B01AC01C5016D
:10296000B4010E94431C6093850270938602809399
:1029700087029093880220916B0230916C02409103
:102980006D0250916E02C701B6010E945819209144
:10299000890230918A0240918B0250918C020E94F0
:1029A000431C28E431EE4AE75FE30E9458196B01AB
:1029B0007C012AE037ED43EA5CE3609163027091A9
:1029C000640280916502909166020E9458199B01F1
:1029D000AC01C701B6010E94431C60938902709349
:1029E0008A0280938B0290938C0220917502309121
:1029F0007602409177025091780260917D02709149
:102A00007E0280917F02909180020E94421C4B01C5
:102A10005C012091710230917202409173025091D9
:102A200074026091790270917A0280917B02909198
:102A30007C020E94421C6B017C01A5019401C5012E
:102A4000B4010E9458194B015C01A7019601C7010E
:102A5000B6010E9458199B01AC01C501B4010E9446
:102A6000431C0E94C01D20E030E040E85FE30E946C
:102A7000F21818160CF42CC280916F02909170021B
:102A8000873991058CF11092A1021092A202109246
:102A9000A3021092A40210929A0210929B0210922A
:102AA0009C0210929D02E0919E028E2F90E0FC010C
:102AB000EE0FFF1FE80FF91FEF58FC4F80818F7B4F
:102AC0008083E09197028E2F90E0FC01EE0FFF1FB4
:102AD000E80FF91FEF58FC4F80818F7B808361E006
:102AE0008DE00E94120705C00196909370028093BA
:102AF0006F0280911B03882321F081EE92E00E94F7
:102B00002B098091DF02882321F085EA92E00E9460
:102B10002B092FE832EC41EB50E46091A102709157
:102B2000A2028091A3029091A4020E94581920E071
:102B300030E043EB54E40E94431C0E94501D8EE998
:102B400092E00E9407032FE832EC41EB50E46091E1
:102B50009A0270919B0280919C0290919D020E942A
:102B6000581920E030E444EC54E40E94431C0E94D5
:102B7000501D87E992E00E94070380919602882306
:102B800009F4A3C181E20E94260C4C0183E20E9459
:102B9000260C5C0184E20E94260C6C0185E20E94F6
:102BA000260C7C0186E20E94260C3C018BE50E94EB
:102BB000260C1C018DE50E94260C9EAF8DAF8BE785
:102BC0000E94260C2C018DE70E94260C8C0180911E
:102BD000C4049091C5042B969FAF8EAF2B97A40190
:102BE00070E060E0CE01C7960E94A10CB4016F5F57
:102BF0007F4FA501CE01C1960E94A10CB5016F5F68
:102C00007F4FA601CE018B960E94A10CB6016F5F8B
:102C10007F4FA701CE0185960E94A10CB7016F5F7F
:102C20007F4FA301CE014F960E94A10CB3016F5FAD
:102C30007F4FA101CE0149960E94A10CB1016F5FA7
:102C40007F4F4DAD5EADCE0143960E94A10C6DADA0
:102C50007EAD6F5F7F4FA201CE010D960E94A10C49
:102C6000B2016F5F7F4FA801CE0107960E94A10CB1
:102C70002B964EAD5FAD2B9741505109B8016F5F58
:102C80007F4FCE0101960E94A10CCE01C7960E94F3
:102C9000420C60937D0270937E0280937F0290933A
:102CA0008002CE01C1960E94420C6093790270931B
:102CB0007A0280937B0290937C02CE018B960E94D5
:102CC000420C609375027093760280937702909322
:102CD0007802CE0185960E94420C60937102709337
:102CE00072028093730290937402CE014F960E94F9
:102CF000420C609308027093090280930A02909339
:102D00000B02CE0149960E94420C6093910270938F
:102D100092028093930290939402CE0143960E9474
:102D2000420C60930C0270930D0280930E029093FC
:102D30000F02CE010D960E94420C60930002709328
:102D400001028093020290930302CE0107960E9433
:102D5000420C60938D0270938E0280938F02909349
:102D60009002CE0101960E94420C4B015C018092C0
:102D7000040290920502A0920602B09207021092FD
:102D8000960250E040E06AE472E080EC94E00E9439
:102D9000760CCE0101960E94210CCE0107960E946E
:102DA000210CCE010D960E94210CCE0143960E946B
:102DB000210CCE0149960E94210CCE014F960E9413
:102DC000210CCE0185960E94210CCE018B960E948B
:102DD000210CCE01C1960E94210CCE01C7960E9403
:102DE000210C809195028823A1F1C0900C02D09013
:102DF0000D02E0900E02F0900F02009191021091EE
:102E000092022091930230919402409108025091D5
:102E1000090260910A0270910B0281EE92E00E9419
:102E2000920400918D0210918E0220918F023091B8
:102E30009002409100025091010260910202709153
:102E400003027501640185EA92E00E9492041092E7
:102E5000950260918502709186028091870290911F
:102E6000880242E00E944F0B86E492E00E94BC0A76
:102E700020E030E040E050E46091890270918A02E5
:102E800080918B0290918C020E94431C42E00E9430
:102E90004F0B86E492E00E94BC0A809183029091DD
:102EA00084020E94210B86E492E00E94BC0A809179
:102EB0008102909182020E94210B86E492E00E949E
:102EC000BC0A88E492E00E94BC0A0E94580DCACB5A
:102ED0001092700210926F0263E070E08EE992E04F
:102EE0000E943E0364E070E087E992E00E943E03A6
:102EF00060E0F6CD80EC94E00C94210C66277727F7
:102F00000C948517F8940C94BD1E8F929F92AF92EB
:102F1000BF92CF92DF92EF92FF920F931F93CF93C6
:102F2000DF937C016B016115710519F0FB01918341
:102F30008083E7010991802F90E00E94D1185C0105
:102F4000892BB1F50D32B1F50881E701229611E028
:102F50007E01F1E0EF1AF10843E050E066EA71E02B
:102F6000C7010E94DA18892B61F57E0182E0E80E24
:102F7000F11C45E050E061EA71E0C7010E94DA18F7
:102F8000892B21F47E0197E0E90EF11CC114D104D4
:102F900019F0F601F182E08260E070E080E89FE7DE
:102FA000112309F4F1C060E070E080E89FEFECC00D
:102FB0007E01BFCF0B3219F40881E701229610E0A1
:102FC000C7CF43E050E06EE971E0C7010E94DA1814
:102FD000F12CE12C20E030E0A901892B61F4C1142F
:102FE000D10421F02296F601D183C08360E070E025
:102FF00080EC9FE7C9C0F0EDF00FFA3058F5E12FF3
:10300000E260812F887012FF08C0811103C0FFEFBA
:10301000EF1AFF0A09911E2FEECF882319F081E0E5
:10302000E81AF108A5E0B0E00E943D1E9B01AC014A
:10303000220F331F441F551F2F0F311D411D511DDE
:10304000283999E93907490799E1590718F3E12F18
:10305000E660E0CFFE3F29F413FD3AC0E12FE860BF
:10306000D9CF0F7D0534A1F588818D3241F41061EF
:10307000BE016E5F7F4F8981E2E0F0E007C0BE01D4
:103080008B32B9F36F5F7F4FE1E0F0E08053EB01EB
:10309000CE1BDF0B8A30E0F4E0E8AE16ECE0BE06B3
:1030A0005CF4F501EE0FFF1FEE0FFF1FAE0EBF1E0B
:1030B000AA0CBB1CA80EB11CEB01899180538A306D
:1030C00090F114FF03C0B194A194B108EA0CFB1C69
:1030D00011FF07C0C114D10421F02197F601D1835B
:1030E000C083CA01B9010E94F7181370133009F4A4
:1030F00090584B015C0120E030E0A9010E94F218D9
:10310000882309F43FC0C5EDD1E0F7FE05C0F19476
:10311000E194F108CDEBD1E06E01F8E1CF1AD108CE
:1031200000E210E00FC0BE01B7CFFE01259135913E
:1031300045915491E01AF10AC501B4010E94581951
:103140004B015C01D501C401E016F10674F7249728
:1031500015950795CC15DD05A9F78A2F880F8B2FBC
:10316000881F8F3F49F020E030E0A901C501B4017C
:103170000E94F218811106C082E290E0909322052D
:1031800080932105C501B401DF91CF911F910F916B
:10319000FF90EF90DF90CF90BF90AF909F908F9077
:1031A000089591110C94C519803219F089508550F9
:1031B000C8F70895FB01DC014150504088F08D9123
:1031C00081341CF08B350CF4805E659161341CF009
:1031D0006B350CF4605E861B611171F3990B0895D9
:1031E000881BFCCF0E94341908F481E00895E8940C
:1031F00009C097FB3EF490958095709561957F4F3F
:103200008F4F9F4F9923A9F0F92F96E9BB279395EC
:10321000F695879577956795B795F111F8CFFAF4FC
:10322000BB0F11F460FF1BC06F5F7F4F8F4F9F4F2D
:1032300016C0882311F096E911C0772321F09EE88B
:10324000872F762F05C0662371F096E8862F70E0F1
:1032500060E02AF09A95660F771F881FDAF7880FCB
:103260009695879597F90895990F0008550FAA0B21
:10327000E0E8FEEF16161706E807F907C0F0121689
:103280001306E407F50798F0621B730B840B950B8C
:1032900039F40A2661F0232B242B252B21F40895E1
:1032A0000A2609F4A140A6958FEF811D811D08957E
:1032B0000E946B190C94DF190E94D11938F00E94FA
:1032C000D81920F0952311F00C94C8190C94CE193C
:1032D00011240C94131A0E94F01970F3959FC1F3F6
:1032E000950F50E0551F629FF001729FBB27F00DB4
:1032F000B11D639FAA27F00DB11DAA1F649F662709
:10330000B00DA11D661F829F2227B00DA11D621F57
:10331000739FB00DA11D621F839FA00D611D221F11
:10332000749F3327A00D611D231F849F600D211DF5
:10333000822F762F6A2F11249F5750409AF0F1F078
:1033400088234AF0EE0FFF1FBB1F661F771F881FE1
:1033500091505040A9F79E3F510580F00C94C81938
:103360000C94131A5F3FE4F3983ED4F38695779557
:103370006795B795F795E7959F5FC1F7FE2B880F87
:10338000911D9695879597F908959927882708950F
:1033900097F99F6780E870E060E008959FEF80EC08
:1033A000089500240A9416161706180609060895AB
:1033B00000240A9412161306140605060895092E11
:1033C0000394000C11F4882352F0BB0F40F4BF2B80
:1033D00011F460FF04C06F5F7F4F8F4F9F4F0895C0
:1033E00057FD9058440F551F59F05F3F71F04795B6
:1033F000880F97FB991F61F09F3F79F0879508959B
:10340000121613061406551FF2CF4695F1DF08C0B9
:10341000161617061806991FF1CF869571056105D6
:1034200008940895E894BB2766277727CB0197F97E
:1034300008950F931F93CF93DF938230910510F47B
:1034400082E090E0E0912505F091260530E020E053
:10345000B0E0A0E0309799F42115310509F447C098
:10346000281B390B24303105C0F58A819B816115F9
:10347000710571F1FB0193838283FE0111C04081CC
:1034800051810281138148175907F8F048175907ED
:1034900099F4109761F012960C93129713961C935F
:1034A0003296CF01DF91CF911F910F910895009334
:1034B000250510932605F4CF2115310519F0421783
:1034C000530718F49A01BD01EF01DF01F801C2CFE3
:1034D0009093260580932505D0CFFE01E20FF31FC0
:1034E000819391932250310939832883DACF209137
:1034F000230530912405232B41F4209112023091B1
:10350000130230932405209323052091100230915B
:1035100011022115310541F42DB73EB74091140237
:1035200050911502241B350BE0912305F0912405E1
:10353000E217F307A0F42E1B3F0B2817390778F08A
:10354000AC014E5F5F4F2417350748F04E0F5F1FE9
:10355000509324054093230581939193A2CFF0E0EB
:10356000E0E09FCFCF93DF930097E9F0FC01329723
:1035700013821282C0912505D0912605DE0130E02C
:1035800020E02097A1F420813181820F931F2091A8
:103590002305309124052817390709F067C0F093F7
:1035A0002405E0932305DF91CF910895DA01AE174A
:1035B000BF0708F040C012964D915C9113979D0192
:1035C0004115510599F7D9011396FC93EE93129783
:1035D0004D915D91A40FB51FEA17FB0779F4808127
:1035E00091810296840F951FD90111969C938E9319
:1035F0008281938113969C938E931297B0E0A0E002
:103600008A819B810097B9F5FE0181919191E80F24
:10361000F91F80912305909124058E179F0719F6B5
:10362000109761F51092260510922505D093240578
:10363000C0932305B8CFB383A28340815181840F07
:10364000951FA817B90771F44E5F5F4F8D919C913C
:103650001197480F591F5183408312968D919C9169
:10366000938382832115310509F0ADCFF0932605B0
:10367000E093250598CFDE01EC01C2CF13961C9292
:103680001E921297D3CF6F927F928F929F92AF929A
:10369000BF92CF92DF92EF92FF920F931F93CF933F
:1036A000DF938C01009789F4CB01DF91CF911F91BB
:1036B0000F91FF90EF90DF90CF90BF90AF909F90D1
:1036C0008F907F906F900C94191AFC01E60FF71FF2
:1036D0009C0122503109E217F30708F4B5C0D90163
:1036E000CD91DC911197C617D70710F1C530D105E0
:1036F00078F0CE0104978617970750F0C61BD70BBA
:103700002297C193D1936D937C93CF010E94B21AFB
:10371000C801DF91CF911F910F91FF90EF90DF9043
:10372000CF90BF90AF909F908F907F906F900895B3
:103730004B018C1A9D0A5C01AC0EBD1EA0912505A3
:10374000B0912605712C612CF12CE12C109731F5EC
:1037500080912305909124058A159B0509F065C089
:103760006616770608F061C08091100290911102F0
:10377000009741F48DB79EB7409114025091150205
:10378000841B950BE817F90708F05EC0F093240539
:10379000E0932305F90171836083BACF8D919C91E9
:1037A0001197AA15BB05B9F56C0142E0C40ED11CF6
:1037B000C814D90480F1AE01461B570B480F591F9E
:1037C0001296DC9012971396AC915A01B2E0AB0EB0
:1037D000B11CB5E0AB16B10480F0D282A383518353
:1037E0004083D9016D937C93E114F10479F0D70102
:1037F0001396FC93EE9312978BCF22968C0F9D1FFE
:10380000F90191838083ED2DFA2FEECFF0932605F9
:10381000E09325057DCF6816790608F43C017D010B
:1038200012960D90BC91A02D91CFCB010E94191A38
:103830007C01009749F0AE01B8010E94271CC80125
:103840000E94B21A870164CF10E000E061CFFB0153
:10385000DC0102C001900D9241505040D8F708950C
:10386000FC018191861721F08823D9F799270895C3
:103870003197CF010895FB01DC0101900D920020EA
:10388000E1F708955058BB27AA270E945A1C0C94B0
:10389000DF190E94D11938F00E94D81920F039F4AC
:1038A0009F3F19F426F40C94CE190EF4E095E7FB33
:1038B0000C94C819E92F0E94F01958F3BA1762073F
:1038C00073078407950720F079F4A6F50C94121A73
:1038D0000EF4E0950B2EBA2FA02D0B01B90190012B
:1038E0000C01CA01A0011124FF27591B99F0593F6F
:1038F00050F4503E68F11A16F040A22F232F342FB7
:103900004427585FF3CF469537952795A795F04004
:103910005395C9F77EF41F16BA0B620B730B840B19
:10392000BAF09150A1F0FF0FBB1F661F771F881FD1
:10393000C2F70EC0BA0F621F731F841F48F4879529
:1039400077956795B795F7959E3F08F0B0CF93951B
:10395000880F08F09927EE0F979587950895DF93C4
:10396000DD27B92FBF7740E85FE316161706480733
:103970005B0718F4D92F0E94B21D9F938F937F93FA
:103980006F930E94001EE4EEF0E00E94861D0E94EC
:10399000DF192F913F914F915F910E946B19DD23A9
:1039A00051F09058A2EA2AED3FE049EC5FE3D0786D
:1039B0005D270E945A1CDF910C94DF190E94F21CB3
:1039C0000C94DF190E94D81958F00E94D11940F0C8
:1039D00029F45F3F29F00C94C81951110C94131A63
:1039E0000C94CE190E94F01968F39923B1F3552372
:1039F00091F3951B550BBB27AA2762177307840702
:103A000038F09F5F5F4F220F331F441FAA1FA9F397
:103A100035D00E2E3AF0E0E832D091505040E69585
:103A2000001CCAF72BD0FE2F29D0660F771F881FE6
:103A3000BB1F261737074807AB07B0E809F0BB0BD9
:103A4000802DBF01FF2793585F4F3AF09E3F5105ED
:103A500078F00C94C8190C94131A5F3FE4F3983E65
:103A6000D4F3869577956795B795F7959F5FC9F7D6
:103A7000880F911D9695879597F90895E1E0660F57
:103A8000771F881FBB1F621773078407BA0720F0D0
:103A9000621B730B840BBA0BEE1F88F7E095089539
:103AA0000E94571D6894B1110C94131A08950E9436
:103AB000F81988F09F5798F0B92F9927B751B0F0AF
:103AC000E1F0660F771F881F991F1AF0BA95C9F7A2
:103AD00014C0B13091F00E94121AB1E008950C9414
:103AE000121A672F782F8827B85F39F0B93FCCF3C7
:103AF000869577956795B395D9F73EF4909580951F
:103B0000709561957F4F8F4F9F4F0895DF93CF93AF
:103B10001F930F93FF92EF92DF927B018C016894C9
:103B200006C0DA2EEF010E946B19FE01E894A59100
:103B30002591359145915591A6F3EF010E945A1CAC
:103B4000FE019701A801DA9469F7DF90EF90FF90EA
:103B50000F911F91CF91DF9108950E94341908F4BD
:103B60008FEF08959B01AC0160E070E080E89FE377
:103B70000C94DE1C19F416F40C94CE190C94091E46
:103B80000E94F819B8F39923C9F3B6F39F57550B60
:103B900087FF0E94171E0024A0E640EA900180588B
:103BA0005695979528F4805C660F771F881F20F044
:103BB00026173707480730F4621B730B840B202944
:103BC00031294A2BA69517940794202531254A2799
:103BD00058F7660F771F881F20F02617370748070A
:103BE00030F4620B730B840B200D311D411DA09529
:103BF00081F7B901842F9158880F9695879508957C
:103C00009B01AC010C9458190E943419880B990B34
:103C100008959F3F31F0915020F4879577956795EF
:103C2000B795880F911D9695879597F908959150AE
:103C30005040660F771F881FD2F70895052E97FB17
:103C40001EF400940E94351E57FD07D00E94501E9E
:103C500007FC03D04EF40C94351E509540953095DA
:103C600021953F4F4F4F5F4F0895909580957095E8
:103C700061957F4F8F4F9F4F08950E94721EA59FA1
:103C8000900DB49F900DA49F800D911D1124089557
:103C9000B7FF0C943D1E0E943D1E821B930B08959E
:103CA000A1E21A2EAA1BBB1BFD010DC0AA1FBB1F40
:103CB000EE1FFF1FA217B307E407F50720F0A21BB2
:103CC000B30BE40BF50B661F771F881F991F1A941F
:103CD00069F760957095809590959B01AC01BD0149
:103CE000CF010895A29FB001B39FC001A39F700DA3
:103CF000811D1124911DB29F700D811D1124911DF4
:103D00000895991B79E004C0991F961708F0961B37
:103D1000881F7A95C9F78095089597FB072E16F4AA
:103D2000009407D077FD09D00E94A91E07FC05D09A
:103D30003EF4909581959F4F0895709561957F4FC2
:103D40000895EE0FFF1F881F8BBF0790F691E02D9F
:103D50001994AA1BBB1B51E107C0AA1FBB1FA617C2
:103D6000B70710F0A61BB70B881F991F5A95A9F724
:103D700080959095BC01CD01089511E0C1E7D1E097
:103D800000E006C0802FFE010E94A11E2196011DA9
:103D9000C237D10780E00807A9F7F894FFCF4E0794
:103DA00052072F0746074A07340755075B075F0787
:103DB000650769076D077307770734077B07810776
:023DC000850775
:103DC200986E523FDF4F0D3F986E523FDF4F0D3FCF
:103DD200000027052000000000005806CF06F90564
:103DE200A5062A0608061C0600000000CA059D0555
:103DF200F80686059605980287056E616E00696E63
:0C3E020066006F7666002C000D0A0000C0
:00000001FF
